:2000000000400020F1E2000001C9011001C9011001C9011001C9011001C9011001C901108B
:1C00200001C9011001C9011001C9011001C9011001C9011001C901103FC9011089
:20003C002DE9F04FADF13C0D01F074F9B44DB5484FF00009C84600F5AA7005F1A40608906F
:20005C0005F5BA70D0380990A6F19E000A90A6F174000B902536A868AE4A49464FF0FF33E7
:20007C0000F028FC0028F6D04846059007A905AA06A80FF06FF9002840F08480BDF8184062
:20009C0001200746102C78D128789DF81C10884273D1059C20884FF6FF7181426DD0237849
:2000BC00913B58D01F3B68D16078162827D020797E2818D07F280ED00090484640F2325111
:2000DC00B3A301904A460292039204923A46ACA00AF072FA30E020894A4640F22D51009013
:2000FC00B5A30192EFE7207A0090484601904FF4A561029003220390B6A30490E7E72079F3
:20011C00009048464FF4A261019002220290C0A303909BA0CDF810900AF04EFAEB6A8BB9A7
:20013C004FF6FD709349944A00904B46102006F037FDEB6AC2B22AB1217904F1080000F091
:20015C00BDFB1AE043F001033846EB6209F004F94F462C6111E060780E280ED1CDF8009084
:20017C0048464C46019040F2F3413A460294C0A3039483A004940AF01FFA059810B10FB150
:20019C0010F03FFEE86800F09DFB00287FF463AFE86800F09BFB0246696A177A0C9002F170
:2001BC000904072F03D9103F00F09B82FEE2DFE817F08301B3009600FA0263004500080081
:2001DC00A102E86A4008C0F0F1822F69002F00F0ED82A87807F10804401CA870C449009444
:2001FC007A883B79102006F0DBFC5FFA80FABAF1160F14D0EF6ABAF1040F10D037F0010783
:20021C00EF6208D14FF6FD705A495B4A00900123102006F0C5FC504609F09EF8C6E22869A5
:20023C0000790090A8784F464C46019002220297BDA3039440F27C51049739E1C77A00F127
:20025C000904002F0CBFC4A0C6A000904F4640F23F314846019001220297C4A3039748A026
:20027C0004970AF0A9F948460090A04922884B46102006F095FC99E200F10904407A0D28CA
:20029C0014BFC7A0C9A06778002F0CBFCAA1CFA10122D3A300904F4601914846029040F249
:2002BC00EE31039736A004970AF086F927780D3F06D07F1E40F07A820120641C01461AE013
:2002DC00641C48460121224605F0C4F90D4A484628210AF099FC286A401C286266E227888C
:2002FC0041F2101022463F1A0ED0103F40F05E8220796188641D224605F0ACF956E2C0464E
:20031C00C0070020E007002010795188521D07F0EDFB4BE20F0000C027880FF2CC2CB7A226
:20033C00BCA1B7F5895719D0103F40F03F82B4F8050040B1401E04D0401E08BFCDF834C0DD
:20035C0002E00D9200E00D912079012840F02E820D9CCBA0CEA740F2CC41A0E0B4F80500E7
:20037C0000287AD0401E09D0401E08BFCDF838C074E0C04681D800009B0701000E926DE093
:20039C0070726F6A6563745F7A65726F2E6300C052656365766965642047415454204D6591
:2003BC0073736167652E204F70636F64653A2030782530327800C0464D54552053697A65AE
:2003DC00206368616E67653A20256420627974657300C046466C6F7720636F6E74726F6C92
:2003FC002076696F6C617465642E204F70636F6465206F66206F6666656E64696E6720419B
:20041C005454206D73673A2030782530327800C04F7574676F696E67205246204649464FA8
:20043C002066756C6C2E2052652D7363686564756C65207472616E736D697373696F6E20E4
:20045C006F66206D73672077697468206F70636F646520307825303278000E912779CFB148
:20047C007F1E40F0A381A1A740F26E4115E0C04648434920436F6D6D616E6420436F6D70E9
:20049C006C657465204576656E7420726563656976656400C7A740F26341C8A00E9C009027
:2004BC00019702944B460393C8A34A4604920122CE480AF081F879E1278841F210103F1AD9
:2004DC0000F0B180203F40F07181277997B17F1E40F06C8160790090A0790190E079D5A3D8
:2004FC004F46029040F29E410397DEE7A5F30000DDFE0010089F4946282238460BF08AFE45
:20051C00641D2722214638460AF01AFCB64FC7A45BA000904A46019440F297410297D4A3C6
:20053C0003924C460494C2E75265747279696E67206D6573736167652077697468206F7003
:20055C00636F6465203078253032782E20417474656D707420256400446973706C61796908
:20057C006E6700C053656E64696E6700426F6E644D67722052657175657374656420706196
:20059C007373636F64652E205765206172652025732070617373636F646520253036640023
:2005BC00427574746F6E203100C046C0427574746F6E203000C046C01B5B33336D72656C6E
:2005DC0065617365641B5B306D00C0461B5B33326D707265737365641B5B306D00C046C0CD
:2005FC00257320257300C046496E6469636174696F6E7320656E61626C6564004E6F74698F
:20061C006669636174696F6E7320656E61626C656400C0464E6F74692F496E6420646973C9
:20063C0061626C656400A178099A601D0CF080FC2379671D0FF2542B0FF2542A63B35B1E47
:20065C0040F0B48074A00090994876A3019340F22E41012202904846039085A3049063480A
:20067C0009F0AAFFA869627907210EF065FB3F7807B1D3464C4664A040F2364127E0C04676
:20069C0044617461205365727669636500C046C053747265616D00C05FA0009058A40194C1
:2006BC00834C40F21F41012271A302944C4603944E48049409F080FFA8693A7806210EF039
:2006DC003BFB3F7807B1D34649A040F227410090CDF804B04F46029703944B4604936DA3B7
:2006FC00E5E60820494603F0FFFD5FE0425554544F4E310008460A9910F03FFB04270B9828
:20071C00ADF81A80083030F8021CBDF81A207F1E20F802190A44ADF81A20F4D1E9880B983B
:20073C00BDF81A7001800DF11A02781880B280102821ADF81A0048460AF066FA012402203A
:20075C003070062774701B23B770FF22F370052032714946471C3154F8B21F28F9DBBDF82A
:20077C001A009DF81A701F2132460012707140F20730B77103F02EFB40B9062010F080F835
:20079C0080F00102A86906210EF0D6FABDF81A004F4600904C46CDF8048040F27931029780
:2007BC0040A3039481E6407A05F026FC0C980EF065FCE7E4425554544F4E300042757474F2
:2007DC006F6E205365727669636500C043434344204368616E6765206D73673A2025732083
:2007FC0025733A20257300C0340900209C0300001B5B33316D4C4544301B5B306D00C04632
:20081C004C45443000C046C01B5B33326D4C4544311B5B306D00C0464C45442053657276F5
:20083C00696365004C45443100C046C0537472696E6700C056616C7565204368616E676505
:20085C00206D73673A204461746120536572766963652053747265616D3A20253032783A31
:20087C00253032783A253032782E2E2E00C046C056616C7565204368616E6765206D73670A
:20089C003A2025732025733A202573006F6666006F6E00C05475726E696E672025732025E4
:2008BC007300C046414443204156473A2025640064080020DFF800F0F99B0110DFF800F03B
:2008DC0089840110DFF800F04FBF0110DFF800F0F1BF01102DE9F04FD44C04F11801204687
:2008FC00ADF1340D0DF00CFA00264FF6FF7066700121208204F1A4000EF042FC022104F199
:20091C00C8000EF03DFC042104F1EC000EF038FC4FF0040A04F1440810224046314684F84B
:20093C0002A00BF077FC04F154091022484631460BF070FC04F11C073E6004F10A052E7043
:20095C00E671267207206072CDF80080DFF8F882022210200346414606F022F91020032273
:20097C004146CDF80090034606F01AF91020524641460097134606F013F94FF0080B4FF05B
:20099C00030905F12A00079005F17900089005F11E00099005F15A000A9024350B9517E0EA
:2009BC006078A28FE18FB4F84050B4F8423006280ED1ADF80A20ADF80C10ADF80E50B948A7
:2009DC00ADF8103010F06BFA012002A90BF0A2F8A069B34A31464FF0FF33FFF76BFF071CDF
:2009FC00F6D0059606A80DF11A0105AA0EF0B2FC002840F0BD81BDF818102078102940F0E4
:200A1C00B3819DF81A10884240F0AE81059D29884FF6FF728A4200F09C812B78A23B00F04C
:200A3C007F812E3B40F0A081A978B046002900F03B81891E00F00A81491E012940F2D980B6
:200A5C00891E00F09C80491E6FD0491E5CD0083900F05681891E40F0598194F83A30A888AF
:200A7C00052BADF8080047D001208DF812008D4810F015FA94F83A0001281ED004281CD0D5
:200A9C0003280DD002280BD00598C188ADF80A100189ADF80C104189ADF80E10818927E09F
:200ABC00A08FE58FADF80A00B4F84030ADF80C50B4F84210ADF80E301AE0A08FE988884266
:200ADC00D8BF081CADF80A002989E08F8842D8BF081CADF80C006989B4F840008842D8BFFA
:200AFC00081CADF80E00A989B4F84200884200DC0846ADF8100001E08DF81260A849102041
:200B1C0002AA06F04DF801E1A64810F0C8F96B78002B40F0FB80E88860822889A082688972
:200B3C00E08260480FF0BCFFF0E0AA88B449102006F036F80798414606220BF06BFB6682EB
:200B5C00A682E682A8792073564810F0A8F9954810F0A5F94FF001084FF6FF702379208241
:200B7C0053B9A879082812BF84F801A00520607040460FF0C5FFC9E084F80190C6E06B7891
:200B9C007BBB291D07980A680260898881800623637068892082E8896082288AA082688A90
:200BBC00E082E878E07294F83A00012818BF02280BD1994910201F2205F0F2FF4FF47A71D2
:200BDC0080B2414337480EF00BF9688900909149CDF804A0EA7810202D1D2B4605F0E0FFDD
:200BFC0097E06878312840F08880E67084F801A08FE06B78002B40F08080A878E38961786C
:200C1C00032815D0E078257923B9012814BF2671E67006E0054304D0804819460EF0E0F8EE
:200C3C0061780729E2D10620607072E0D00C0020062907D0E578002D08BF84F8019068D0FC
:200C5C000220F1E70720EFE7A50201006B78002B53D1EB78617893B902291DD007291BD0EC
:200C7C00062902D12079012816D1032914D06B480FF016FF80B901200FF042FF0CE00EF052
:200C9C00A5FD0246A07962490090089843460190102005F085FF68706D78002D2DD135E09A
:200CBC0007000080980D00206B7833BB5C485749009002221020034605F072FF59484A46F3
:200CDC00524900901020034605F06AFFED1C099829680160A98801238180207863700EF09B
:200CFC0075FD024601230A9D6079494900901020019505F055FFC0B258B184F801B008E0B9
:200D1C00AA8841491020052305F04AFFB8F1010F2AD1256A45B32D6835B36078A84723E0E3
:200D3C006879132820D12889012808D1607B022805D11C4810F0B3F80EF03EFB14E0364943
:200D5C001020052205F02CFF81B216480EF048F80AE06888C00B07D3334852462B4900909B
:200D7C001346102005F01CFF059808B110F049F82579E078790830D355EA00032DD0204608
:200D9C0000788DB9E179257A8DF808100B9A8DF8095013680DF10A052B609288AA8005E024
:200DBC0005160110BC0D00208DF80890617A8DF81010A17A8DF811100EF008FD11490246FF
:200DDC0002AB102005F0ECFE38B1256A84F801B01DB12D680DB15846A847B80803D31349F6
:200DFC0030460AF097FEF808FFF4F2AD607B401E3FF4D6AD401E7FF4EBAD0EF0DDFAE7E547
:200E1C00CDDC000059440110C11701107D890000094501104D94000069060100740D00201F
:200E3C00140D0020240D0020EC0C00200A0D00202DE9F04FADF1240D079006F091FF5F48CD
:200E5C0000780EF07BFF5E4D0024012806D90C3804D0401E0ED0401E09D006E00FF08AFBBA
:200E7C00022804BF01210C1C06D0696805E005211F2401E0032107246960524A1068C0F36A
:200E9C008150012806D152F80C0C0127020E07FA02F004430FF0ECFD05F1440AFF225346AB
:200EBC004018401E471C28607F1E03F8012BFBD1079A1268002602F0FF03FE2B1DD0DDF8C5
:200EDC001CC0964633460EF0FF07FF2F0ED0B84205D3B94203D80122BA40144201D00220A7
:200EFC0069E016430EF0FF020AF802305CF804EF5B1C0EF0FF07FE2FE7D1092009F054F8EC
:200F1C0007980121A86005F128000EF0F9FC00274FF0010BB9462846804600F198050BFAA3
:200F3C0007F0044216D1064204BF07F0FF0141F4C04104D01AF80700079951F820102248C9
:200F5C0007F07AFAF8B24FF0FF310EF01BFFC5F8009001E004202860D8F800007F1C2D1D4A
:200F7C008742DCD904A80FF053FD184C184A2078102104AB059008F10C000DF0DFFC68467E
:200F9C000FF086FDCDF80C906A4660681149029008F164000DF06AFD0F4951F80D0C20F45F
:200FBC00F85040F4005041F80D0C0C4FC1F8FFBF4846C7F800B009B0BDE8F08F9127002073
:200FDC0058130020B43F0050007FC767882601008903010019E700000D3009400800094067
:040FFC0030BF70474B
:20100000B412000018100000E1D90000FDB301106DC00110FDAE011099B50110000000000E
:08102000000000002D0000009B
:20102800B01200003C100000B1C00110A9BF011067C0011069B80110000000000000000035
:041048003000000074
:20104C00B012000060100000BDC00110CDB30110D9BD01106DB3011000000000000000005B
:04106C00310000004F
:2010700000000000241D002004000000000000000000000020000000E8C9011030000000E9
:20109000281000002C1D00200400000000000000000000000C000000D8CA011018000000C4
:2010B0004C100000341D002004000000000000000000000024000000F0CA01101800000048
:2010D000000000003C1D00200400000000000000000000001000000018CA01102C00000054
:2010F000001000004C1D0020040000000000000000000000200000006CCA011024000000B8
:20111000FFFFFFFF541D00200400000000000000000000002800000090CA01102400000077
:20113000FFFFFFFF5C1D00200400000000000000000000001400000008CB011018000000F6
:20115000FFFFFFFF641D002004000000000000000000000058000000B4C9011034000000C4
:20117000FFFFFFFF6C1D00200400000000000000000000001000000020CB01101800000092
:20119000FFFFFFFF741D00200400000000000000000000001C000000B4CA011024000000BF
:2011B000FFFFFFFF7C1D00200400000000000000000000003800000044CA011028000000E7
:2011D000FFFFFFFF841D00200400000000000000000000005400000078C901103C0000005C
:0811F00002000000A826010026
:0411F80001000000F2
:0411FC0000000E00E1
:0412000000000F00DB
:0412040032000000B4
:0412080001000000E1
:04120C00781C00202A
:0412100000020000D8
:0412140000000000D6
:0412180001C90110F7
:04121C0000000000CE
:0412200000000000CA
:0412240008000000BE
:0412280000002200A0
:04122C00A81A0020DC
:0412300000000000BA
:0412340000000000B6
:0412380008000000AA
:04123C00381C00203A
:0412400000000000AA
:0412440000000000A6
:04124800080000009A
:04124C00000000009E
:04125000000000009A
:041254000000000096
:041258000000000092
:04125C00010000008D
:04126000401B00200F
:041264000600000080
:041268000100000081
:04126C00D81900206D
:04127000000000007A
:041274000000000076
:041278000002000070
:04127C00000000006E
:02128000290043
:02128200010069
:02128400250043
:02128600300036
:02128800310033
:02128A002D0035
:02128C0001005F
:01128E00015E
:081290000300000054260100D8
:0812980000000000000000004E
:0412A0000000010049
:0412A4000000030043
:0412A80013C401105A
:0412AC001F08010016
:0412B000B812000070
:0412B400B81200006C
:0412B8000000000032
:0412BC00EC1C002006
:0412C000EB09010035
:0412C4002000000006
:0412C8009C25010060
:0412CC0050240100A9
:0412D00029C101101F
:0412D4001BED00000E
:0412D80063F00000BF
:0412DC00A1C7011095
:0412E000A3C701108F
:0412E4000000000006
:0412E800D120010010
:0412EC0038210100A4
:0412F0005021010088
:0412F40020210100B4
:0212F8000200F2
:0212FA000900E9
:0212FC000100EF
:0212FE000000EE
:0113000001EB
:041304007909010062
:04130800F5EF0000FD
:04130C00C1FE00001E
:0413100009F30000DD
:041314002DF00000B8
:0413180095E100005B
:04131C005DB70000B9
:04132000510C01006B
:0413240011D60000DE
:0413280015C70110D4
:04132C0025C70110C0
:201330002DE9F04F964C04F108012046ADF1BC0D0CF0ECFC0FF2881900200746009040F2E6
:20135000F71101970122029761A303974846049709F038F904F1680528463946E76110F099
:2013700005F92422082305A83946E56010F0FAF8844800684FF47A71B1FBF0F082493A4652
:2013900005AB85B2FA2068430A9004F5A87010F0E5F804F1800004F18C0109F0ADFAA06171
:2013B00070B900973846019040F2122102900322039057A30490484609F004F910F0CAF8CB
:2013D00004F1740004F1980109F096FA606178B90097384601904FF40671029003220390E1
:2013F00054A30490484609F0EDF810F0B3F8606966490FF044FC70B100973846019040F28B
:201410001E2102900322039052A30490484609F0D9F810F09FF80EA839462422082310F015
:20143000A1F85B4E32220D200EAB55431490314604F584702A4610F091F80E200EAB1490FC
:201450002A46314604F5967010F088F80125ADF8607040F205302DAA8DF8B450294602F053
:20147000BFFC40F20630022118AA02F0B9FC621C4FF44270294602F0B3FC04F1C90240F238
:2014900007301F2102F0ACFC04F1E800394620220AF0C6FE04F1E80804F1C9063846325C1A
:2014B000401CC0B231180B78092B18BF082B01D11F2A6FDB8018C0B22028F0DB6FE0C0466D
:2014D00070726F6A6563745F7A65726F2E6300C0496E697469616C697A696E672074686549
:2014F0002075736572207461736B2C2068617264776172652C20424C4520737461636B201B
:20151000616E642073657276696365732E00C0464572726F7220696E697469616C697A6970
:201530006E6720626F617264204C45442070696E7300C0464572726F7220696E6974696121
:201550006C697A696E6720627574746F6E2070696E7300C04572726F7220726567697374E0
:201570006572696E6720627574746F6E2063616C6C6261636B2066756E6374696F6E00C0F7
:20159000C0070020E0260100D30D0100C5AF000041BF0000491C521E404609F0D7FBCDF80D
:2015B00000803E46019748464FF4147102962A46039681A3049609F005F8894F10200622A4
:2015D000A023394605F0F2FA10200722A023394605F0ECFA10200822A023394605F0E6FAF1
:2015F00010200922A023394605F0E0FA10202A461E23394605F0DAFA8DF8B55017AF8DF871
:20161000B65028468DF8B8004FF48162179604238DF8B760734D00971020294605F0C6FAC8
:201630000DF1B5004FF48062012300902946102005F0BCFA0DF1B60040F2024201230090E6
:201650002946102005F0B2FA0DF1B7000090294640F203420123102005F0A8FA2EA82946DF
:2016700040F2064201230090102005F09FFA5E4910204FF0FF3205F099FAC54910204FF022
:20169000FF3205F093FA1027DFF808A3C248C34A0097132351460190384605F087FA04F1D9
:2016B000B40032461523BE490090384605F07EFAB946BD48BB4DCDF8009005235146019083
:2016D00005F10C02384605F071FAB0463546BDA705200090D8210195012202953B4603952C
:2016F000B4A0CDF8108008F06DFFB04E94F800B0307880000FF0C5FB0146AD48C16041B35B
:201710004FF6FF700DF0A6FC307880000FF0B9FB0146A7480161E1B14FF6FF700DF09AFC1A
:20173000A34ACB4948460723009014320191514605F03CFA07200090FE2101950122029590
:201750003B460395A8A0049508F03CFF984880F800B0307894F800A080000FF092FBBD4D5A
:201770000146E960E1B14FF6FF700DF073FC48460090B9490191874905F14C02062305F033
:2017900015FA0620009040460190EB210290012203903B46049099A008F014FF85F800A093
:2017B000307880000FF06DFBAC4E0FF2602A01460029B16035D019E04E616D6520696E20EE
:2017D000616476657274446174612061727261793A201B5B33336D25731B5B306D00C04666
:2017F00039F20000D1490000C5FD00004FF6FF700DF030FC4846009099490191654906F1BE
:201810003402062305F0D2F906200090404601908A210290012203903B460490504608F036
:20183000D1FE604904F14800474688600FF2F01800900122019743460297E72103975DA059
:20185000049708F0BFFE5A4904F1500088600090012201974346029740F20F11039762A0FD
:20187000049708F0AFFE04F15800A860FC210090012201973D460295434603955FA0049588
:2018900008F0A0FE04F16000706094210090012201953E460296434603965046049608F019
:2018B00091FE19A8282239460AF0BAFC6D4923A8282209F04BFA012119AA384606F01CF9D8
:2018D000012019AA014606F017F93846012119AA03F0C6FE012019AA014603F0C1FE384652
:2018F000282123AA03F0A8FB0120142119AA03F0A3FB3846282119AA09F08CF9FA2002213D
:201910000DF16202ADF86200012009F083F9564D69782878A1B904F1280129620DF05CFF39
:2019300005F154070096024605F14400019005F11C0302974D490393AB78484605F036F9EE
:201950004B4904F14002484605F030F920780DF043FF48490246484605F028F920780DF017
:201970003BFF45490246484605F020F90CF04CFE04F1380528460FF001FA304629460CF0EA
:2019900063FE606200B9FEE72FB0BDE8F08FC04671000100A1F900003C260100B41000201A
:2019B000C1BC0000CC18002030230100694F00205C1700206C65645F736572766963652E24
:2019D0006300C0465265676973746572656420736572766963652C20256420617474726956
:2019F000627574657300C046627574746F6E5F736572766963652E6300C046C064617461D1
:201A10005F736572766963652E6300C073756E6C69676874536572766963652E6300C0463F
:201A3000526567697374657265642063616C6C6261636B7320746F206170706C6963617457
:201A5000696F6E2E2053747275637420257000C0AC22010080150020D8220100C81600206B
:201A7000C824010045220100D00C002097E50000E102010051880110318101102DE9F04FA3
:201A90000F46CD4C0168E16241688068ADF11C0DE060C548A1608047C448E16A0160A168EE
:201AB000DFF810A34160E168DFF804938160CE49002FA346C1606FD03D68E8788DF80C002E
:201AD00028798DF80D0003A80FF040FDA86808B1C6490160E86808B1C5490160C54C28787A
:201AF00020706878BE686070A878B268A0703178A2607368E1702E696360EA692662796839
:201B1000E2620868E06068696062A8697B68A062286A9E68206395F8240084F834001EB9E5
:201B300000200EF08BFC00E066617868C06818B900200EF083FC00E0A0617868006918B9D8
:201B500000200EF07BFC00E0E0617868406818B900200EF073FC00E0206128692062F86805
:201B700081680E6806B9D24ED0494FF001084E60C66881F8018036B900200EF05FFC4D46E5
:201B90002E68F86801E04D462E6000685446FB68A0615868E06107E000200EF04FFC4D46F3
:201BB0002E684FF001085446361DC749366804F1080350205246B04710B12868806880479D
:201BD000DBF808008047C24E002781463B46BF487770694660610422337038460DF00AFC2C
:201BF0000098B0F5801F0CD020B90DF029FF06F0BDFD08E00CF0FCFB0EF0A2FE04207080E2
:201C100001E00DF01DFF3846BA4EE0602B68B760986980477060AF4880F800803946418083
:201C300014200EF07BFFFF211422A0620FF045F9E01CFF2102220FF040F914200EF06EFF3C
:201C5000A54F38603868002114220FF036F9002000F052F940460CF069FFA0480188FF29E5
:201C700006D1022101807822001D00210FF025F903200FF067FC04200FF060FC05200FF0BC
:201C900059FC06200FF052FC07200BF08BFC944E0820307006F124000FF044FC0BF040FE86
:201CB00006F1360A05200A2152460EF0F3FA38B10020C0F10901401C0AF8011B0A28F8DBC7
:201CD0003078102107F0A4FF2B68864909200DF10E025E68087001AB10200021B047A06AAC
:201CF000E1690A260A309DF80E20761E00F8012BF9D1891EE161DBF80C104846884704F1B1
:201D100020002B68626A059040461E69DFF8D88104F120034146B04710B1286880688047CC
:201D3000B8460DF0AFFF5FEA000903D008F084FE4FF0FF39002643E00298616910F8062CED
:201D5000A0F10C07032A03D1002939D0884737E0A16A9DF810C00A223046491E11F8013FF4
:201D70009C4506D0521E00F10100F7D14FF0FF0A01E05FFA80FA2868BAF1FF0F00F1080034
:201D90001CD038790DF0DAF8B979012904D0022904BF0299887001E00299087002995046F1
:201DB0000EF0BEF90CE0C04641490010F8440020981D0020A01B00202C1600200068804735
:201DD0002868C36904A902AA0DF10F0098470028B2D0D8F800007700C35B6BB9761CF6B285
:201DF0000A2EF8DB2BE0C0468415010049F9000039060100701A00200A2E20DADBF80800E4
:201E10008047D8F80010002231F807A0CA53DBF80C108847354850F8262066705146304650
:201E300090470646FF206070DBF808008047D8F800107A5A16437E52DBF80C1088470DF046
:201E500021FF0746B9451AD007B9294FE069B84238BF071CDBF80800804781462868016A24
:201E7000206A8847626A28681F49059B521C6262C6683846B047DBF80C1048468847E76825
:201E90002968A0681431AFB9D8F800000A270026835B33B10969A06888472968D8F8000059
:201EB00014317F1E06F10206F2D107E0041D0020B7CA0000096988472968143109684FF0FE
:201ED000FF3088472DE7C04655FE0000B1060100CC0C0020241A002080270020E01700209B
:201EF000E41100209227002085EF0000D82301008EC2F5282C2700202DE9F84FDFF8BC1391
:201F1000DFF8BC23DFF8BC5308700821002010600D23DFF8B4034FF44E72017043808280ED
:201F3000DFF8A8030560AC7EDFF8A4030470FF2CE97E417008BFFF292A7F82706B7FC370A4
:201F5000AE7F0671ED7F457115D1FF2A08BFFF2B11D1FF2E08BFFF2D0DD1DFF878130A78E7
:201F700002704B7843708A788270CB78C3700A79027149794171DFF860130278DFF85C831B
:201F9000DFF85C93DFF85C730A70FF2543784B7082788A70C378CB7002790A7140794871DF
:201FB00088F8005088F8015088F8025088F8035088F8045088F805500020CB490880D9F895
:201FD0003440CA49607808702278C9493A70A0780870A2681079C74A411E1170E078C64949
:201FF000C64A0870E068106008B90EF027FA2069C34E306008B90EF021FA3068DFF804A397
:2020100001688847326852F8041F50468847BE48BE49CAF82000CAF824106069BC490860F1
:2020300008B90EF00BFAA069BA49086008B90EF005FAE069B849086008B90EF0FFF9DFF85A
:20205000DCB2B74C9BF804000EF068FD0028206075D09BF80500B34E0EF060FD002830604C
:202070006DD09BF80600DFF8C0A20EF057FD0028CAF8000063D09BF807000EF04FFDAB49FA
:20209000002808605BD039789BF80000891C484380B20EF043FDA649002888604FD03878C3
:2020B000002862D0BBF80210484380B20EF036FDA04A0028506042D038780EF02FFD9E496E
:2020D000002808603BD0387840000EF027FD9B490028086033D03878182148430EF01EFD3F
:2020F000974A106058B3387840010EF017FD9549086020B3387800010EF010FD9249086059
:20211000E8B1387800010EF009FD90490860B0B13878302148430EF001FD8D4A106070B1CF
:202130008C483978007848430EF0F8FC8A4A106028B138780EF0F2FC8849086018B9BDE8AD
:20215000F14F06F007BD4FF0000B09E00EF0B6FC0021418081600180022303710BF1010BAD
:2021700039785FFA8BF08842F0D32268694F0120107121680D732068457321688D732068FF
:20219000C57321680D7400212068457400202268D172A0222168487103212068C280017239
:2021B0000720226850720021206881722821206801224182C27600202168487700222068FF
:2021D00080F85E200121226811770120216881F85D0001223068027131680D7330684573AE
:2021F00031688D733068C57331680D7400213068457400203268D1720022316848713068D1
:2022100082724FF420703168C88008818A7401213368D974DAF800201573DAF800104D7359
:20223000DAF800209573DAF80010CD73DAF8002015740022DAF800104D740121DAF800300E
:20225000DA720023DAF800201171DAF800104B71DAF80010C88008818B720520DAF8002026
:202270009374DAF800103E4AC874106880473968054608688047396851F8042F002090472B
:20229000D9F80C101C4B0A881878364902430A802846354A136898470C2134480FF03EF944
:2022B00040460FF037F90FF031F9BDE8F44F034800784FF4005107F0ABBC00BF6E4F0020F7
:2022D000044F0020B63F0050604E0020084F00202C4E0020E81200503C4E0020344E0020C1
:2022F000082701007B4F00200C4F00206D4F00206B4F0020724F00206C4F0020F04E002069
:20231000F44E00207C4B00202D0B01004D0B0100F84E0020FC4E002064270020E01C00203B
:20233000104F0020144F0020184F00201C4F002038270020684E0020004F00206827002006
:20235000804E0020844E0020884E00208C4E0020904E0020B81D00206C2700207027002040
:2023700034160020544F002038160020F84D00202DE9F84FC04CA178FF2904BF00200EF0C2
:202390005DF8A0780EF0B4FA044604F1680504F190062968086810B10021E1830CE0A87B87
:2023B000002804BFA97E002906D13078002801BF207F0128608CE0832189E08B4118491C81
:2023D000618120460FF09EF801281EBFAB480178012904D121890020491CE08361814FF6E6
:2023F000FF77A87E01280DD1AA8B618920890FF085F838B1218960894A1C93B298421BD0FA
:20241000A88B0FE03078012816D17288618920890FF074F880B1218960894A1C93B2984291
:202430000AD0708892B2904206D03818608180B20FF060F83F18E78304F5967999F80400B6
:2024500020B120890021401CE183608104F12E07A87E012811D12189A88B4B1C9BB298426A
:202470000BD160810FF046F88046B988288C01FB080820460AF0C8F901E0B7F80480B4F8AA
:202490001EC022687E4ED2F80CE00CF1010000FB08F340F6C41000FB03F18E44C2F80CE0DD
:2024B0003668DFF8E0E13678BEF80080764AB609032E11D1D67BF60748BF4FF000080BD4E5
:2024D00008F101081FFA88F6012E12BF668AB9F8066006F2DC5600E0668A5E434FF4C87A2C
:2024F000B6FBFAF6761C6661AEF80080A3614FF0180894F806A084F820C008FB0AFADFF8DD
:202510008CC1DCF800E023680EF1080656F80AB0C3F810B094F806A008FB0AFACDF800A0F1
:20253000D3F80CB0D4F814A0ABEB0A0ADDF800B046F80BA094F806A008FB0AFA56F80A607B
:202550009E600EF10C06A37908FB03F30EF10C0EF65C06F0F00646F002060EF803604FF00A
:20257000000ADCF800E0A6790EF1020308FB06F623F806A0464BA6791B68760103F1140AEE
:20259000D4F814B05AF806A00AEB4B0A03F1140B4BF806A0AD7E022D0BD1A5796D0103F1A7
:2025B000140697F800B056F805A000FB0BAA46F805A0BD88D27BA779D60736D508FB07F791
:2025D0000EF10802D659A6F5A86A0EF1080646F807A0A77908FB07F7D2592768511A396134
:2025F000BA6003F11402A1794901575807F5F667575003F11401A27952018958C9F800106B
:202610006843244AA179156B03EB41162968401AA0F51670F0612049A07903EB40100B7818
:20263000012B14D10121C17214E003F114027F01D1592A464243A1F5E661A2F516729142B8
:20265000DED3082120460EF051FF012011E0916A4A78C272A179DCF8000008FB01F281185C
:202670002268516007200D490870204609F04EFE0020BDE8F28F00BF684E0020784F0020AD
:20269000084F0020882700205C4D0020804E0020844E002008270100734F00206F4F00204B
:2026B0002DE9F84F0C46E00788B00BD50EF016FA28B100218160B348006800B1804784F024
:2026D00001005CE1A0070FD500210023069105910491039302910191009101223C200EF052
:2026F00001FF84F002004AE11D256007A64EA74F40F18A80002107918B46A5488178FF29C3
:2027100004BF00200DF09AFE386890F8A0000EF0EFF880463868C07A98F82691022818BF9C
:20273000032808F5907A06D106F10D000EF0D6FE08B906F1070B514648460EF0CBFE88B3B9
:202750003868807A002818BF012804D1314650460EF0BCFE04E05246494630460EF0B2FEDE
:20277000FF2834D005FB00F906EB090506225146E81D0DF0ADFF16F80900396840F00209C6
:20279000E81D07900622887E00F0010088F8260105F1010A386800F1140108F590700DF026
:2027B00097FF14E0514648460EF088FE78B15246494630460EF086FEFF2808D006F10D018A
:2027D000454348190EF08AFE08B949F0020908F12C004B460178069142891209059201220F
:2027F000B8F822100491C0880799029140080390CDF804B0CDF800A0002098F806100EF05A
:2028100071FE84F00400BAE020060FD50021002306910591049103930291019100910122A8
:202830003B200EF05FFE84F08000A8E0E0044BD5F11D06F10D000EF03DFE3868017A0129C2
:2028500018BF042931D1C17A02291EBF0329817E01292AD1817E00F1140230460EF032FE25
:20287000FF2811D04543354405F10D000EF036FE50B9E91D05F10D000EF01CFE3868062218
:20289000E91D14300DF024FF3868C07A022818BF03280AD106F10D000EF020FE28B938683C
:2028B0000622F11D0C300DF013FF3A4842683A4800784FF480510BF0BDFD10B18E2009F030
:2028D00075FB84F480505AE0A00505D50EF0C5F9324901200860FEE7600504D506F065FC3D
:2028F00084F480604BE0600405D5812009F05EFB84F4804043E0A10440D5294D286810B138
:2029100000200DF09BFD274E4FF0FF3028600EF0CDFD3168244D51F8202F6846904723492C
:20293000234B486A8A6A009001920293C86A0268086A0392ADF810000A6B1178002904BF79
:202950005068002805D19068002804BFD068002806D02970506868609168A960D068E860FD
:2029700029463568134A2E6813486B46B0471349086004F0E3F984F4005000E0002009B030
:20299000BDE8F08F204F0020AC450020104F0020684E0020784E00206E4F0020FC002043EC
:2029B000044F0020F04E002068450020701A0020DD0A01002C4D002030260020EC4E00206E
:2029D0002DE9F04F09AFADF13C0D08900A92388809911E46ADF81800101C08BF002000F041
:2029F0007581017800274FF0010B401C4FF0FF39B846DA460A9061E1252940F0568101784B
:202A1000401C0A902D2918BFADF8068004D10178ADF806B0401C0A9030291CBF4246434674
:202A300004D10178401C5A465B460A902A29CDF800804D4617D1049330680A9BCDF80890BD
:202A5000C01C20F00300001D306050F8044C1978002C009403F101000A9018D5ADF806A01A
:202A70006442009413E044460AE0600000EBC4004018A0F130040A9801780094401C0A90D4
:202A9000302901DB3A29F0DBCDF8089004932E2929D10178401C2A290A9011D13168CDF87C
:202AB0000880C91C21F00301091D316051F8045C002D48BF454601782B46401C0A9011E094
:202AD000454643460AE0680000EBC5004018A0F130050A9801782B46401C0A90302901DBFB
:202AF0003A29F0DB02930AB1224604926C2904D04C2918BFADF8048004D10178ADF804A0D5
:202B1000401C0A900BA8CDF80C800FAB07906429059300F0828069297FD0BDF818C0752937
:202B30006DD0782969D06F2965D070294ED063293ED0732922D00A98401E0A90099801285E
:202B50001AD966490C68B5F1FF3F03D0A84288BF6D1C05D86FF00041814294BF0D1C099D7C
:202B7000029508A80AA932466B46A04709993F18091A0398099165E0454617E03068C01CAF
:202B900020F00300001D306050F8040CBCF1010F014608B94FA0014607910DF0DBFE039011
:202BB000B5F1FF3F4FD0A8424DD9039528464AE03068C01C20F00300001D306010F8040C76
:202BD0008DF82C005D46039558463CE0082035680490E81C20F00300001D306050F8041CBA
:202BF000082210230FA809F027FF401E079040210170079823E0082302E0102300E00A23DC
:202C10003068C01C20F00300001D306050F8041CAA42BCBF2A1C04920DE03068C01C20F054
:202C30000300001D306050F8041CAA42BCBF2A1C04926FF009030FA809F0FEFE07900599DD
:202C5000081A0390009C241ABDF8065000945DB906E008A8202109AA0CF05FFF7F1C009C05
:202C7000641E0094F5D50398401EB0F1FF3F03900FD1BDF8060001281CD10098401E0090C2
:202C900018D408A8202109AA0CF047FF00987F1CF4E70798017809AA08A80CF03EFF0798F1
:202CB000401C079003987F1CDEE708A809AA0CF034FF7F1C0A980178401C0A9000297FF43C
:202CD0009BAE089808B14146017038460FB0BDE8F08FC046286E756C6C2900C0EC26010004
:202CF000BB482DE9F84F0025BA4CB849056094F8E200002800F06581012800F02F81B64E9A
:202D100002283CD0032840F05C8151F8250CD4F8B8100029A0F5C060C4F8D400B8BF4942B7
:202D30000028B8BF4042814226DA4FF08057D7F8A4014568B4F8BC0030214FF47F42082380
:202D500000903046A847D7F8A4014568B4F8C00004214FF4F802122300903046A847D7F886
:202D7000A401B4F8D070456820214FF440620A2330460097A847012584F8D8501CE151F8A6
:202D9000258C0DF06AFF2F4600B901273946934F38680028FCD0B146012609F10409D9F8CB
:202DB0002CA03E6009B10DF05EFFCAF30720C4F8BC000DF052FFAA4600B9B2463B68002B6C
:202DD000FCD0D9F800B0BAF1000F3E6001D00DF04AFFCBF38440C4F8C0000DF03EFFAA46FF
:202DF00000B9B2463B68002BFCD0D9F81C90BAF1000F3E6001D00DF036FFC9F38120C4F887
:202E1000D000B8F5C061C4F8B81000F09C8094F8D80068B9C4F8D410D4F8C000C4F8C8003F
:202E3000D4F8BC70C4F8C470D4F8D030C4F8CC30D4F8D400D4F8BC30002854BF02226FF000
:202E5000010204F1C8010F6800EB40008018421000EB927207EBA2000860D4F8C810C4F8CA
:202E7000C43000291CDD1E293CDDD4F8CC0030B93429B4BF15391E21C4F8C81025E02A2902
:202E9000BABFD4F8C8000B381E20C4F8C800D4F8C4003F28B4BF401C3F20C4F8C4001FE06C
:202EB000D4F8CC00032812D011F10B0FC6BFD4F8C8000B30301CC4F8C800D4F8C400002865
:202ED000C4BF401E051CC4F8C450032508E011F1150FC6BFD4F8C8001530301CC4F8C800AC
:202EF000C4F8CC504FF08057D7F8A401B4F8C43030214FF47F424568374800930823A84792
:202F1000D7F8A40104214FF400321123456832480096A847B4F8C860D7F8A40104214FF403
:202F3000F802122345682C480096A847D7F8A40120214FF440620A23B4F8CC6045682648F2
:202F50000096A84701E084F8D85040F2FF50404502D8801C40452FD2082030E051F8251C93
:202F70001F4F4BF2F5204843060A3868C0F3814001280CD11B480068006880470BF040FD9A
:202F90000DF077FE3111C010484306EBE03694F8E50030B91448006820F07F403618760852
:202FB00001E084F8E5501148310C0660012741600F4D8760287808B90B2000E0052084F85A
:202FD000E40003F063FCBDE8F88FC0462D400C402C500C406C14002000A00C4000800C40A0
:202FF000B43F0050EC010010102009403C600C40812501002DE9F84FB34D696884B0019185
:2030100021B905B0BDE8F04F0EF04CBA0978DFF8BC82AF4EDFF8BC92DFF8BCA201291CBF37
:203030000229042946F2A81741F64C5B05D0402918BF802900F096803CE10DF04BFE002804
:20305000FAD00198007804F0BBFF0090446814B900200DF0F3F99AF8010000285CD000F0EE
:2030700043F90DF045FC02900168009801914F6809F028FE022825D000990A78012ADBD1BA
:2030900096490A68137A19F80310317018B90EF005FA5844A0602069C17E01F0EF01C17633
:2030B0002069C17E41F08001C1762069C17E01F0F00141F00201C1762269B9688848411865
:2030D000D1614BE001980178802911D10820854930700A78012A03D09AF80100022801DB37
:2030F00038690CE0D8F828003A690178D1720DE07C49072030700A783869012A02D1012120
:20311000C17203E0D8F828104A78C2720298817901988AF80210C8E0009800288CD001996C
:20313000009A0078914205D101281CBF00200DF085F915E0012840F0BD80684801680A7AFD
:2031500019F8020030700EF0A9F93918A0680EF0A1F918B90EF0A2F95844A0600120A870DC
:203170000098A2E09AF8010000287AD000F0BCF80DF0BEFB04462068029047689AF802001F
:203190000DF0B6FB03900DF0ABFD10F0070F3DD0A87804F015FF01904168019800910299EF
:2031B00009F090FD022831D001990A78012A2AD14A490A68137A19F80310317028B90EF0D6
:2031D0006DF983440098C0F808B000980069C17E01F0EF01C17600980069C17E41F0800160
:2031F000C17600980069C17E01F0F00141F00201C176009AB9683A4841181069C1610121A8
:203210000198A97051E000200DF018F90398A04225D0029833490278802A12D10820307036
:203230000978012903D09AF80100022803DB38690121C17210E0D8F828003A690178D17228
:203250000AE0072030700978386901290EBF0122D8F828104A78C272A0798AF8020002983C
:2032700023E00DF03DFD10F0070F29D0A87804F0A7FE04462078D4F80480012820D1174990
:203290000868027A19F8021031700EF007F93918D8F808000EF0FEF820B90EF0FFF85844E9
:2032B000C8F808000120A870204605B0BDE8F04F06F06CBD05B0BDE8F04F00200DF0BEB8B3
:2032D00005B0BDE8F08F00BF38270020082701006F4F0020289A0110684E0020104F002091
:2032F000F0D8FFFF734F00202DE9FE4FB24C617811B900200DF0A2F80EF0D0F84FF000084E
:20331000074607F6C417C246AC4DDFF8B49228E050460DF0EDFA06467079F0B12968B07948
:2033300001F80800394608F101005FFA80F830460EF0ACF830680178402902BF06F1820066
:203350000178012902BF41887289914205D1B169C088411830460BF0BBFC0AF101005FFA54
:2033700080FA99F800008245D2DB6178884505D000200DF063F882200EF084F860780128AE
:2033900040F0F180002701E07F1CFFB299F80000874280F2E28038460DF0AAFA06467079A6
:2033B0000028F1D02968B0790A7890421CBF00200DF044F8B079FDE0286810F809000DF02E
:2033D00097FA00684268DAF808109068814204BF3E4609F1010900F0D480D6E0286890F838
:2033F00000B001224FF4C0710FE0636803F5AD76835C01FB03F901FB0BFE36F809C036F8A0
:203410000E60B44538BF9B46521CFBB29A42ECDB4FF6FF700EF032F8064658460DF068FA7A
:2034300068490068D0F804A00868D94630F8192060684FF4C07300F10E0103FB09F3C85AAD
:20345000B2EBD00F52D2720840F6C4104243009200275D4A0190029217E058460DF048FA5A
:2034700001680A78802A03D1DAF81030009A5A610978402908D1029980790A6802EB401165
:20349000009800F5A060C8617F1C47452EDA2868C05D8345F8D001464FF4C07359436368D6
:2034B0005A1803F5AD73D289595A53088B4202D2521A9045E8DA0DF01BFA01684A68019B9C
:2034D0009168DAF808207008A1F6C41103FB00200DF0E0FF0028C0D03A48006830F8191018
:2034F000491C20F81910286810F807B0296808780DF0FEF90026006847684FF4C07946457E
:2035100051DA2868805D0DF0F3F90068296842688B5D606809FB03F3034403F1820108788F
:2035300030B15889B1F802C0401C80B2604508DA887B01280ED15889098A401C80B2884262
:2035500008DB6EB3B968906801F5C241A8310DF0A1FF28B3761CF6B2D1E700200CF06EFF79
:2035700082200DF08FFF617828680DF083FF286800780DF0BDF900260068D0F804A04FF032
:203590000109771CC145FFF617AFF6B2002E1CBFF8B200287FF422AF286890F800B037E710
:2035B000296811F806B007490A6800205B4622F813005846BDE8FE8F684E0020004F0020E6
:2035D0007B4F002068270020844E00202DE9F84FDFF8B8A20F460446F80B80F00B81A64E30
:2035F000DFF88882B80F80F0BC80B80880F0B0803809C0F0318108200DF054FB002840F098
:20361000A28080200DF04EFB002840F09C80684607F0B2FA012803D10098002800F093800D
:2036300091480078002840F08E8000250124E8B20DF054F948B1837A3BB1847290F909002B
:2036500004FA00F0C0B20BF0B5FB6D1C032DEED345464FF0030905F1AC0085F810900DF043
:20367000FEFB8348002301680360824950F8082C98461A4640F8088C05F134000DF0FDFB17
:203690003068006B8047A968401A010BA869C1F1FF3282422CBF08444FF0FF30A861287FCC
:2036B00020B1E868A969B1EBC02F1ED90CF098FC414600B12146081C14D0704840F6090116
:2036D000018041464180427B64F303024273027B61F30302027341600DF0D8F9418811F4BB
:2036F000406FFBD02C774146A9616548016821F0020141F400710160624941F8049C41F224
:2037100030028A600C6050268E600C604FF4CA628A600C6041F80C4C4446046002200BF0E0
:2037300001FD112006F0D4FA287818B9686838300DF0AFFB687F18B16C7705200BF0F2FC95
:20375000514868612C7409F089FD27F0080783E005F088F945467435286808B927F0020734
:203770007AE00DF084FBB3468146DBF85400016804208847D8B1207CC8B14546083528682A
:20379000A8B10646DBF80000E568006B8047801BE060000BE060A84202D240194008E0605D
:2037B00040F6C41181422CBFB0F5FA7FE16048460DF05CFE0BF0E2FA90B1A56920466FF40D
:2037D000807100224FF00073A847464606F16C052868002808BF47F0020701D009F03EFD6D
:2037F0002046646900214FF080630A46A04727F0005731E00DF03BFB51460E6846B306F15D
:20381000280106C90A234FF0E0450B40154008BF002B1DD106F1280191E8300006F12803A4
:2038300093E8060006F12803AA43A14383E806000DF01CFEB16869B1002D08BF002C09D050
:2038500030692246B6F93C10B4682B46A04701E00DF00CFE27F4804727B1504639465030B1
:203870000DF01FFBBDE8F88F591F0020C01D00201410044059D500008C010010F4260020F3
:20389000000004600C410440A19A0000401E00202DE9F04FDFF8A4B2804609AFFF200E46F7
:2038B0001C460025ADF1240D97F8049007903F8830780592022805D17068008842F6021137
:2038D000814273D030460AF0A9F95FA3069018B3401E0ED028460090019040F22621029087
:2038F0000322039051A304904CA006F06BFE0A2091E066A00090CDF8048040F221210294A9
:203910000122039745A0CDF8109006F05BFE5946142001F1040911E05EA00090CDF80480A7
:2039300040F213210294012203973CA0CDF8109006F048FE5946282001F10209B84214DD72
:2039500007EB040A50450ADBF06805992246C01907F0FCF9A9F800A00698079013E02846E3
:2039700040F231214DA30D2504E028464FF40B7153A307250090019002900390032204905F
:2039900026A006F01FFE0798FF280DD0DBF8080050B1066846B1E419A0B20090069A059B3B
:2039B00041F230114046B047284634E0B9F1FE0F0CBF0FF230190FF2481930460AF02EF9BF
:2039D00000904FF4FC71CDF804800122CDF808904EA3039511A0049506F0F4FD009703205A
:2039F0000190059A23463146404609F075FB594608310F68051C0DD167B1786850B13046FB
:203A10000AF00CF900947C68059B024641F230114046A047E8B209B0BDE8F08F6461746145
:203A30005F736572766963652E6300C041747472696275746520776173206E6F7420666F50
:203A5000756E642E00C046C05772697465417474724342203A20257320636F6E6E48616EF9
:203A7000646C6528256429206C656E28256429206F666673657428256429206D6574686F30
:203A900064283078253032782900C04653747265616D00C0537472696E6700C0496E7661C3
:203AB0006C69642076616C7565206C656E677468207761732072656365697665642E00C01E
:203AD000416E20696E76616C6964206F666673657420776173207265717565737465642EEE
:203AF00000C046C02D20726573746F72696E6720626F6E64656420737461746500C046C033
:203B10002D204F5441207772697465005772697465417474724342202843434344293A2016
:203B3000706172616D3A20256420636F6E6E48616E646C653A202564202573008015002017
:203B50002DE9FE4FDFF84492914E99F80000914A914D92490D2873D8DFE810F016010E00D5
:203B70000E000E000E000E010E0191000E01CD00CD00EB00EB00F200326041F2044A884907
:203B9000DFF820824A88884C52451FBF4B8B53454B8E53454FF4A0572DD1DFF810B2DBF8FE
:203BB0000000006800F108010079032816D1D1F80E0000281CBF088B00280FD091F82200E9
:203BD00010F0E00F0AD101F11E000DF04BFC012804D1A5F800A07648306084E099F8001029
:203BF00002290CBF44462F8034600020DBF800100A68107177E0002A2A8039D0521E3CD04C
:203C1000521E35D040F2FE33D21A1AD0121F012A1DD94FF47F73D21A1BD04FF44063D21AB6
:203C30000FD0921E012A0CD9121F0AD0521E012A0DD940F2F933D21A012A19D9121F08D0D9
:203C50009AE0022814BF2F80444634604BE0594CFBE759480268137A012B05D141F202404F
:203C7000488048834886F0E74F804F834F86ECE700200CF0E3FB832082E08F2080E04F480E
:203C90008178FF290CD0326018204D4A414310684C4A831C40F204445B5A2B801B1B012B49
:203CB00072D94FF47F741B1B0FD04FF440641B1B032B84BF5B1F012B0BD99B1E012B63D925
:203CD00040F2FD341B1B08D103E0801C41F201434352326005F014F905E000200CF0AEFB99
:203CF00085200DF0CFFB03B0BDE8F04F36480078012105F08DBF40F2044248882880904296
:203D10001CBF41F2084290423ED041F60402904211D12E4C2E4B0020CDE9004002222D4CC4
:203D30002D482468006854F8086FB0472B4908802AE04888288000200CF080FB85201FE097
:203D50004888288002280DD940F20442801A1BD040F6FC72801A05D0083815D04FF47F7262
:203D7000801AE8D1887B801CC2B2B52AA8BF662088730020488007E000200CF05FFB84201D
:203D9000BDE8FE4F0DF07EBBBDE8F78F6F4F0020204F0020430E0100504F0020CC4C00200A
:203DB000204A0020B1540110615A0110F44B002059550110755B0110104F0020684E002033
:203DD000804E0020313901106E4F002002000080D1F10000F04E0020EC4E0020424F0020E0
:203DF0002DE9FC41A0F20135164688460027022D40F203819C499E4A2D1F0F2D04D9143DDF
:203E10004DD0AD1E1DD011E0DFE815F0CB00C4000D01F900BB00B200F700A8009F001000AF
:203E3000100097008B007E00750067002D2806DAB8F1020F04BF8B49338800F00A81022701
:203E50000CE1B8F1010F40F0D8800D46E878012800F0D1800A4630781179107181B90028A2
:203E700000F0FC805078012800F0B080042800F0AD80062800F0AA80052800F0A780EDE013
:203E90003078002840F0EA805078032800F0AA80072800F0A780052840F0E080A2E0B8F16D
:203EB000010F40F0AA803078012840F0A6800D4605F1EC000CF0FAFD68B92C46384604F133
:203ED0003A0107F02DFE071C40F0C88004F1C8000CF0EBFFC2E01627C0E0B8F1020F40F0CE
:203EF0008C8030880A28C0F28880B0F5486F00F38480951C13E0B8F1020F7ED13088B0F5A5
:203F1000FA7F7ADA15460AE0B8F1020F75D13088062872DBB0F5486F6FDC0D463E35288037
:203F30009CE0B8F1020F68D13088062865DBB0F5486F62DC0D463C35F1E7B8F1010F5CD1C0
:203F50003078062859DA4B4D10E0B8F1010F54D13078042851DA0D460A3507E0B8F1010FB1
:203F70004BD13078082848DA0D460935287075E0B8F1010F41D1307804283EDA0D46083556
:203F9000F4E7B8F1010F38D13078042835DC0D46ED1DEBE7B8F1020F2FD130880D460E3558
:203FB000BDE7B8F1010F28D10D462879012822D00A463078D178D07061B900284ED05078E3
:203FD000012803D0042818BF052847D101200CF09DFD43E03078002840D15078022818BF09
:203FF00005283BD110780BF0F7FB20490246102002F0DCFD32E0122730E018272EE00D465C
:2040100005F183041F223946204608F009F931464246204606F09AFE46462878AE710BF0BA
:20403000DBFB3B4612E00D4605F164041F223946204608F0F5F831464246204606F086FE8C
:20405000464628786E710BF0C7FB012300960A4901940246102002F0A9FDC7B23846BDE83A
:20407000FC81C04639F20000D00C002099450110100D00200A0D0020094501102DE9F04F6F
:204090008246DAF80070DAF804600C465FEA0208ADF11C0D14BF00214FF0FF31DFF8409258
:2040B00048460CF088FC002818BF0B2040F0158100258F488C4905708A48FC6052460CF0EA
:2040D000DCFE317B27200CF0DAFEB8F1010F07D0657002200BF006FA06200BF003FA01E0AE
:2040F000012060702078012840F2AA80801E012868D9801E012833D9801E012800F2DE80B0
:204110000CF0B5FE83464FF0805000F5EE77D0F8DC01A378466A009321782846062908BFAE
:204130000120019001200290A068228AE1686368B047814658460DF099F9B9F1000F40F06E
:20415000BF80B8F1000F02D00CF092FA02E050460BF084F8002800F0A3803868806A2AE040
:204170000CF085FE83464FF0805000F5EE77D0F8DC01012306680093A168A278606824782D
:20419000AC46042C08BF9C466346B047814658460DF06CF9B9F1000F40F09280B8F1000F2A
:2041B00002D00CF065FA02E050460BF057F8002876D03868406880474C49C1F8B0510D60C7
:2041D00081467DE00CF053FE83464FF0805000F5EE77D0F8DC01E38A86690093E0680190BF
:2041F000208B0290A0780390207D04900121059122782846022A08BF081CE1786268A36891
:20421000B047814658460DF031F9B9F1000F57D1B8F1000F02D00CF02BFA02E050460BF00C
:204230001DF800283CD03868006A80475FEA000946D1E078A168E28A236907F0B5FCBFE744
:204250000CF015FE83464FF0805000F5EE76D0F8DC01E38AC7680093E0680190208B029024
:20427000A0780390207D2946049001200590257805B9014608466268A368E178B847814649
:2042900058460DF0F3F8B9F1000F19D1B8F1000F02D00CF0EDF902E050460AF0DFFF08B968
:2042B00014201AE03068406980475FEA000907D1306802692169E078904781E74FF0FF39F3
:2042D000B8F1010F05D002200AF02CFF06200AF029FF03480CF0DDFD484607B0BDE8F08F27
:2042F0002C1900206419002055FB00005045024090270020F0B507460020ADF11C0D0E4681
:20431000044664A500900322019464A30294DA2103942846049406F055F964A3B81E09D0C1
:20433000801E00F09E80401E7DD0401E5DD0401E3CD01BE0012E0CD00094019428460294EE
:20435000ED2103940322049406F03CF9EE215AA393E00094019428460294E821039403224F
:20437000049406F02FF9E92158A386E0009401942846029440F2051103940322049406F04D
:2043900021F90094204601904FF4837102900322039054A30490284606F014F901208DF845
:2043B00017009DF817000028FBD170E00094019428460294FF2103940322049406F002F954
:2043D0000094204601904FF480710290032203904AA30490284606F0F5F801208DF8160036
:2043F0009DF816000028FBD151E00094019428460294F92103940322049406F0E3F80094DD
:2044100020460190FA2102900322039040A30490284606F0D7F801208DF815009DF8150021
:204430000028FBD133E00094019428460294F32103940322049406F0C5F800942046019092
:20445000F42102900322039036A30490284606F0B9F801208DF814009DF814000028FBD114
:2044700015E00094019428460294E02103940322049406F0A7F8E1212EA3009420460190C2
:204490000290039003220490284606F09BF807B0F0BDC0466D61696E2E6300C03E3E3E53CA
:2044B0005441434B20415353455254002A2A2A4552524F522A2A2A003E3E20494E54455233
:2044D0004E414C204552524F522100C03E3E20494E5445524E414C204657204552524F5206
:2044F0002100C0463E3E2044454641554C54205350494E4C4F434B2100C046C03E3E205787
:20451000524F4E47204150492043414C4C2100C03E3E204943414C4C2054494D454F5554F6
:204530002100C0463E3E204943414C4C2041424F525421003E3E204F5554204F46204D458F
:204550004D4F5259210070472DE9F04385B011F8017B0446082F04F1FD0004F1FC0804F1C8
:20457000760504F5A076844A844BDFF8149213D0092F21D00F2F2FD0112F01BF2878012875
:204590006878102840F0D5800A78327648787076012184F83D11EBE00025521C4E5D5F5DED
:2045B0003E434E55575D3E4046556D1C082DF5DB204608F051FB74E00024571C0D5D1E5DF2
:2045D00035430D553A5D15400555641C082CF5DB022088F80000CBE098F80100820704D4E8
:2045F00010F0110F57D01A2266E008784A7800EB02203080CA78887800EB022070804A79E1
:20461000087900EB0220B080CA79887900EB0220F080087A30724A7A887A02EB002272811F
:20463000C87A0A7B00EB0220B0818A7B487B00EB0220F0810A7CC87B00EB022030828A7C91
:20465000487C00EB022070820A7DC87C00EB0220B082487D897D00EB0120F082494801782A
:204670008A0658BF1A2212D504F5A670049071890391307A029021890191F0880090B38874
:2046900072883188204607F0A5FFE0B11E2298F80100410710D40F2088F8150020460CF0A2
:2046B000DDFE002864D199F8000005B0BDE8F0434FF4804105F0ACBA204605B0BDE8F04342
:2046D0000F210CF0C7BE7088A882B188E9820221F0882883297400206882A18EA88AC91D1F
:2046F000E981618EB0EB510F02BFE88AA18E884202BF288BE18EB0EB111F18D028780128CB
:2047100004BF68780F2805D0687918B10F21A972FE2127E0FC2120460CF098FEF0880090A2
:20473000B38872883188A0790CF08CFE20E0102118E0491E20460CF081FE032F18D1A87830
:20475000042818BF0D2813D16E78142E18BF0E2E0ED12F7820460CF06DFE012F06BFAE728A
:20477000FD213146204605B0BDE8F0430CF06EBE05B0BDE8F08300BFEC4D002054270020F9
:204790006E4F0020144E002010B50B7884074CBF43F0020303F0FD0304064CBF43F08003D6
:2047B00003F07F0304074CBF43F0080303F0F70384064CBF43F0200303F0DF0310F0AA0FBA
:2047D0000B7003D0107840F00C0003E018B9107800F0F300107010BD2DE9F8430D46002780
:2047F0002878022814461E4667D1696808784978DDF8208000EB012080B25FEA08021CBFF6
:20481000B0F5285F0B205BD14FF42851401A08D0401E21D0401E2FD0401E25D0401E31D0B9
:204830004BE0DDF82490E8680CF049FB80B2A0EB08024A45BCBFA0EB08001FFA80F909EB3A
:204850000800162806DAA6F800904A46E86800EB08010DE00D2732E0E86800880221318041
:204870002070000A60702AE0062030800622E96820460BF02DFF22E001203080E9680A7832
:2048900022701CE0E868B0B1082131800288227003881B0A63704188A1704288120AE2703E
:2048B000818821718288120A6271C188A171C088000AE07103E0308001E037800127384685
:2048D000BDE8F2832DE9F0470F46814638780024022890461D466DD17868089E0178407819
:2048F000DFF8D8A001EB002189B24FF42852891A06D0491E29D0491E4ED0491E39D059E04D
:20491000F8680CF0DCFA80B2B04204D3A919162903DB0D244FE007244DE0FB682A46414669
:2049300098190BF0D5FEAD19F868ADB2C5F11602002140190CF0C1FADAF8000000281CBF8F
:204950000268002A37D0002123E08EBB022DE0D198F8000098F80110FA6800EB0120108030
:20497000DAF8000000281CBF0268002A23D001210FE0EEB9062DCCD1F868062241460BF039
:20499000A7FEDAF8000000281CBF0268002A12D00321484690470EE056B9012DB9D198F849
:2049B0000000002813BF0128F9680870802402E00B2400E001242046BDE8F08778270020F0
:2049D0007CB5894D144602460026A2F58062182A1AD8DFE812F0FE00F800F100E900E200D0
:2049F000DC00D500D0001900C500BE00B700AE00A3001900190080006F00680054004C0059
:204A1000420039002C0024002D2880F28580022940F0828021880AF007FC0646E1E00129B5
:204A300040F0DE80002C00F0DB801135A6E0102940F0D680002C00F0D38028465030102247
:204A500021460BF045FECCE0012940F0C980002C00F0C68029468D1D90E0262940F0C080A8
:204A7000002C00F0BD8005F160002622E8E7012940F0B680002C00F0B3806D1D7EE0602910
:204A900000D13CB9012940F0AB80002C00F0A8800D3573E005F18600214660220BF018FE6C
:204AB000012068739DE0012940F09A8020780CF0BDFC96E0012940F093802078022800F314
:204AD0008F800C3528702078022814BF301C01200CF0A8FC85E0072940F08280611C68464A
:204AF00006220BF0D5FC20786946324605F0C6FC04460A2C10DA0CF091FC38B9204603F0FF
:204B100085FB0BF0D3F808F00BFF6AE02A46012002F12C05285564E0022662E001295FD1B9
:204B3000A87B21780028A9735BD12078012858D1E9E7012954D12478072C51DB102C4FDCCE
:204B50000B3537E001294BD124780A2C48DA093530E0012944D12478022C41DA083529E0FC
:204B700000293DD10CF05AFC10B90BF045FEC8E701240F351EE0012932D10A35247819E07E
:204B900001292DD12478022C2ADAED1D12E0102926D12B4603F1400051E7012920D124784F
:204BB000022C1DDA2D1D05E0012919D12478042C16DCED1C2C7014E0012911D12478022C50
:204BD0000EDAAD1CF6E702290AD120881435288007E0012904D12478022CD8BF6D1CE9DD02
:204BF000182630467CBDC046E41100202DE9FE4F05467B48002400680094C00905D37948AA
:204C1000007810B920200AF043FB012D40F0E280DFF80092D9F8DC00012840F0D880022022
:204C3000C9F8DC000BF0C4FC01200AF031FB5FEA000805D00120C9F8DC000BF0C5FCCBE07A
:204C50000CF02BF9A34602906748684DC0F800B0A86A016801208847012804D1584608F0DE
:204C700067F8012000906248624FC0F800B0386811200CF011F800B1012410200CF00CF875
:204C900008B144F002040F200CF006F808B144F004040B200CF000F820B12868564E016B63
:204CB000308888470A200BF0F7FF20B12868534E016B3088884752480126066028688169AC
:204CD00044F0200088474F4806600BF0DFFF00F001010191400814D2286A81684A4888473D
:204CF0008246BAF1040FF7D0BAF1010F04D1286A42684548032190474449086820F00300F3
:204D10000860584600F088F82B683868986B8047019801280CD0BAF1010F04D1286A4268A6
:204D30003948314690473949086840F0030008602F48066028684169204688470B200BF095
:204D5000ABFF20B128682C4BC16A188888470A200BF0A2FF20B12868284BC16A18888847F3
:204D7000274806600322C9F8DC20264BC3F800B02868416B204688470128F9D13868042068
:204D90000AF086FA0446184806603868144800688009FBD30098012802D1304607F0C8FFF6
:204DB0000BF061FF08200AF073FA07460298C9F8DC600CF02FFB1648008807F0B5FC0BF066
:204DD00003FC57EA040018BF4FF0FF3804E06FF0040801E06FF001084046BDE8FE8FC046DC
:204DF00014100940541500200C400940B8010010000222432C20094000210100FC20010014
:204E1000282008608001044300400340242208407C2501006C1400202DE9F84FDFF804B2CD
:204E30000746ABF13500DFF8F0810068800880F0E28075480068006880477E490831D1F81D
:204E5000009000254FEA29715FEA995201F101010AD2C0F13E0210F10A0F4FEAE202D8BFF7
:204E700008229142B8BF111C684BD3F87C21C2F30462162AA8BF203A1B68C3F30443162B89
:204E9000A8BF203B9A465218162A05DA12F10A0FB8BF6FF0090200E015225D4B5D4E02F07E
:204EB0001F0141F4F8511980316811F0030F18BF0125C90828BF45F002050FB145F0040510
:204ED000434693F90710411A052904DA9979A94208BF99886FD0DFF844E10F28A0F10F0830
:204EF00029DB08EB0011A1F1F0084FEA28210091072984BF07210091062988BF06215EF8DE
:204F100021600424774604EB81043C594FEA950CA41BEE0804F0FF0124BFC4F30726314453
:204F30006F08AE0824BFC4F3074631446E0828BF01EB146104E000214FEA950C6F08009133
:204F5000009C5EF824E05FEA5C060EF0FF0424BFCEF3072634447E0824BFCEF30746344467
:204F70006E0828BF04EB1E64009E89B2A8EB06267143803104EB1124AAEB02010029D8BFDA
:204F90000121342209F0FF074A4391B24FF6FF727943B1FBF4F18A4238BF111C802889B2E4
:204FB000998005DA10F1800FB8BF6FF07F0000E07F20D8719D711A4800681F2918604FF065
:204FD000000008D340F2FF128A4206D24908401C8A42FBD301E01F219980134F0F390909C2
:204FF00040EAC10047EA0001CBF8FB1F0026CBF8FF6FBDE8F88F0D490D4F434608200F6052
:205010009B1D1870BDE8F88FEC0100103C1100506E620840242208405C2700209C13005032
:20503000082009403500094000E7A48030100940FDFDA400AC3F00502DE9F04F804C054698
:20505000E06893460F462E1CADF1140D16D0761E06D00095002040F2311139A305465BE0E6
:205070000646002047A240F22D1104F1040804F1100914254FF0010A84460AE0002043A210
:205090004FF4917104F1020804F1240928258446E24600920197034602900122CDF80CC0A2
:2050B00023A0049330A305F08DFABD422FDB484659463A4605F04AFEBAF1000FA8F800707A
:2050D00032D0B078002808BF32A103D001280CBF37A13DA13088002700903D4601220191B0
:2050F0003EA3029740F24111039511A0049505F069FA06200090534F207804F14C034946A5
:205110002A4601903046029705F0B8F80CE0009700204FF4A5713CA301900295039003220F
:20513000049003A005F04EFA05B0BDE8F08FC046646174615F736572766963652E6300C0D1
:20515000536574506172616D657465723A20506172616D6574657220232564206E6F74201A
:2051700076616C69642E00C0536574506172616D65746572203A202573206C656E3A202564
:205190006400C04653747265616D00C0537472696E6700C01B5B33336D4E6F74692F696E49
:2051B000642064697361626C65641B5B306D00C04E6F74696669636174696F6E20656E6115
:2051D000626C656400C046C0496E6469636174696F6E20656E61626C656400C0547279690D
:2051F0006E6720746F2073656E64206E6F74692F696E643A20636F6E6E48616E646C652045
:2052100025782C20257300C04C656E677468206F75747369646520626F756E64733A204C6D
:20523000656E3A202564204D696E4C656E3A202564204D61784C656E3A2025642E00C046E6
:2052500080150020C57100002DE9F0410446804DA178A869ADF1180D891F00F0F280C91E17
:2052700000F0DD80491E5FD0491E48D0C91E3CD0481E40F0E980287A697AB8B968780028CC
:2052900031D0A0880CF0C2F8071C00F0DD80A07A40080FD3787968B1E168890A0AD2B91DD3
:2052B00001AA05F0EBF80A2804D10321A0880CF0A9F8C9E0287B022802D1A07A0009F4D338
:2052D000A088797904F1080201F0A8FBA869002800F0BA804368002B00F0B68000210A4641
:2052F000A0889847B0E00521E0E7002800F0AC804368002B00F0A88062780221F0E70BF019
:20531000F5FB002800F0A080A86950B1076847B1206900906189227B637BE01C3C46A047F9
:2053300092E060890121C2E767784FF00008002F66D1A179490863D3EF69002F60D101A8A9
:2053500041460E220BF0B9FDA0880CF05FF8071C7AD0606940B97879B91D06228DF80A00AD
:2053700001A80BF0B5F919E06669307C062206F111018DF80A0001A80BF0AAF907F10C004C
:20539000B91D06220BF0A4F9B81D062206F111010BF09EF9307C40F002007871A079C00827
:2053B00039BF387900F0FD00387940F002003871A079000939BF387900F0DF00387940F040
:2053D00020003871A1799DF81120C1F3800010438DF81100080905D39DF8110040F0080030
:2053F0008DF8110001A8214600F022FD28B92878022104F00DFC404627E0A8694FF015084D
:2054100010B3436803B3A088627801219847B8F1000F19D0A86943680321424660E7E078AD
:20543000211D002205F02AF80A280DDA410001EB800004F10C0225300421C0B203F096FAAD
:2054500002E0A08808F03AFC012006B0BDE8F081E41100202DE9F04F044672488E4601686C
:2054700094461F46BEF1000FADF13C0D4DD0BCF1000F4AD09EF8002001209040014244D047
:20549000BCF80000B0F5C15F32D1DCF81400DCF81860654BDCF81C50DFF890A10B904FF07A
:2054B00003080DF128090C9618680D95C0F3036B59F8046FCEB10021351F05200B4655F842
:2054D000042FB2F1FF3F10D0924506D0401E01F1040103F10103F2D107E0052B05DA70584D
:2054F00020F4702040EA0B407050B8F10108DFD1C4F804E0C4F808C00BF0B9FC4C4D80462E
:20551000287820B140460BF0B1FF002087E002F02DFC4849086840F00200086007A80BF0F2
:20553000BDFA002605F1D00007AA4349099609F0A3FA424905F5827007AA09F09DFA07A8DF
:205550000BF06CFAFF20192107AB3D4A089005F1340009F0F9F93B4A05F150001A2107ABE3
:2055700009F0F2F93849324605F18800134608F02DFB3649324605F1AC00134608F026FB3C
:20559000334A05F12000042133460AF003FB0E2004F010FD05F174000BF05AF905F16C0089
:2055B0000BF056F92E740523EB60072085F898012E77AE616E772849AE60264A69612B784A
:2055D0001670581C287040460BF050FFB1461FB968460BF065F96F4638682060388A60820A
:2055F000012060747B6813B940F6C4130646E3601A48A06126746061F86800B1A061B8686B
:2056100000B160614946582204F1200006F008FE04F1380049460AF079F96C6020460FB0D5
:20563000BDE8F08FD4210840541300500200F844C01D00200020094009060100C196000037
:2056500059D50000E5CE0000D1FF0000A5030100F9DE00008A270020A19A00008BA40000CE
:205670002DE9F0477C4C2369E5680F4691460FF2D40A011CADF1180D11D0491E07D0002200
:205690000746154640F2471133A328464DE043A040F24311A61D04F102081D4605E041A003
:2056B0004FF49C71261D04F1010800900197002002900122039032A30490504604F082FF45
:2056D000022F2CDA5FB3404649463A4605F03EFB3780A878002808BF34A103D001280CBF4C
:2056F00039A13FA12888002700903E460122019140A3029740F2571103965046049604F06D
:2057100061FF07200090554F207804F114034146324601902846029704F0B0FD0FE00122D0
:2057300000204FF4B0713EA315460097019204460295032203905046049404F043FF06B0BC
:20575000BDE8F087627574746F6E5F736572766963652E6300C046C0536574506172616DBD
:20577000657465723A20506172616D6574657220232564206E6F742076616C69642E00C013
:20579000536574506172616D65746572203A202573206C656E3A20256400C0464255545493
:2057B0004F4E3100425554544F4E30001B5B33336D4E6F74692F696E642064697361626C23
:2057D00065641B5B306D00C04E6F74696669636174696F6E20656E61626C656400C046C085
:2057F000496E6469636174696F6E20656E61626C656400C0547279696E6720746F20736574
:205810006E64206E6F74692F696E643A20636F6E6E48616E646C652025782C20257300C0AD
:205830004C656E677468206F75747369646520626F756E64733A204C656E3A202564204D65
:20585000696E4C656E3A202564204D61784C656E3A2025642E00C0465C170020657000007B
:205870002DE9FE4F0E468246307AC10693461F464FF000090CD558460BF0C0FD030000F078
:20589000E8800A223146504698475FEA00094DD130780C9D0D9CDDF8388002281AD1706894
:2058B0000178407801EB002189B24FF42052891A012910D9891E3AD0491E14D0FD397AD078
:2058D000491E00F08180491E6DD0491E73D0491E00F09580ABE0002C2AD1F068017829807A
:2058F0000278416887E0002C22D101202880F1680A783A7000217089401C80B20BF07AFD87
:20591000298860B10278921C51182980418979704289120ABA7041680278F81C6CE0091D0E
:20593000298004220021781C0BF0C7FA93E0002C66D1F0680688042129803E70320A7A70B9
:205950000DF1020130460BF055FD040021D0D4F80C80BDF802204FF6FF766B4631460BF072
:2059700045FD40B9237862683C4802210BF03AFD08B9ADF8006098F8000002280BD1D8F872
:2059900004100222381D0AF0A3FE2888801C288001E0ADF80060BDF80000B870BDF8001053
:2059B000090AF97057E0002C2AD1F068016850460BF024F802E01CBBF0680088022129802A
:2059D0003870000A787046E0F0680BF078FA80B2A042B8BF4FF007093DDB844208BF002291
:2059F00005D008EB04028242B4BF4246021B2A8092B2F068011938460AF06AFE2BE014B1DD
:205A10004FF00B0927E0F0680721298002783A7043787B704188B9704288120AFA7001796D
:205A30003971C2887A71C088000AB87113E058460BF0D4FC5FEA00090BD00F980290CDF875
:205A5000048000942B463A4631465046C847814601E04FF00E094846BDE8FE8F0E23010021
:205A70002DE9F04F09AF3D7981461C468A460846ADF1240D3F88069208F070F90026FF2137
:205A90004BA3DFF8C8810790089108B3401E0ED030460090019040F2EB11029003220390B2
:205AB0003CA3049037A004F08DFD0A2066E051A00090CDF804904FF4F371029401220397CA
:205AD00030A0049504F07EFD404600F1040B0FE04AA00090CDF804904FF4EC71029401223D
:205AF000039728A0049504F06DFD404600F1020B05901FBB07EB0408B8F1020F18DAB8F1F7
:205B1000000F03D1182D10D0122D0ED0DAF80C0006992246C01905F019F9B8F1000F1BD0E8
:205B3000ABF800800798089016E040F2FF1101E04FF4FB71304633A30D2604E0304640F228
:205B5000F11139A307260090019002900390032204900CA004F036FD0898FF280DD0059817
:205B7000806850B1056845B1E419A0B20090079A069B41F210114846A847304609B0BDE803
:205B9000F08FC0466C65645F736572766963652E6300C046417474726962757465207761A8
:205BB00073206E6F7420666F756E642E00C046C05772697465417474724342203A20257384
:205BD00020636F6E6E48616E646C6528256429206C656E28256429206F6666736574282594
:205BF0006429206D6574686F64283078253032782900C0464C45443100C046C04C45443098
:205C100000C046C0496E76616C69642076616C7565206C656E677468207761732072656343
:205C300065697665642E00C0416E20696E76616C6964206F6666736574207761732072659A
:205C5000717565737465642E00C046C0CC1800202DE9F04F754F1E46ADF1340D01914FEA1A
:205C7000960902923D680090710809F1020221F0010105EB8200091D0390901805EB8000DF
:205C90000490501805EB80038018059305EB8000079026F0030000F1080802EB080005EB4F
:205CB000800340180893801805EB80000990C6F39C008000083002EB4000411805EB8003B7
:205CD00005EB810B0A938918831805EB8104404405EB8303C6F3990105EB8000890006900E
:205CF00038680B930A010021803206F099FA4849DFF820A109682846AAF18802904707469E
:205D1000B94518BF6FF001007ED128465546394605F168029047019831460AF061FA0028A3
:205D300018BF012070D1029831460AF059FA002818BF022068D103980199A8470498029907
:205D5000A847009881680598A847334B0399059A20469946C847012802D1BD0066590EB1F3
:205D7000032051E020460021424606F059FA0499059A2046C847012801D166590EB1042019
:205D900042E0274B254D079803991E462A46B047089804992A46B047079909980A46B047BB
:205DB0000A980999079AB0471E4D0B9807992A46B04720460021282206F032FA1A4B0A99E7
:205DD0000B9A20469946C847203520462A460146C847089958460A46B0470698002142466C
:205DF00006F01EFAFDB25846002D0CBF0122FAB20021635C455CAB4218BF052004D1491CCD
:205E1000521EC9B2F5D100200DB0BDE8F08FC0468C4F0020B9DB0010C9DE0010D41B002055
:205E3000F9E00010F4210100C9E60010884F00202DE9FF478146724CDFF8C0A1E06988466D
:205E500000284FD1B9F1000F00F09780B8F1000F00F09380484609F009FE05460A2D2574C6
:205E700022DAD8F81470002F3AD0680010216A4600EB85002330C0B20AF00CFA90B950462C
:205E90000778FF21102268460AF047FB50B93FB999F80600494600F001000BF09BFA01E0AE
:205EB0000120A074E0691DE004F1E6070A2600253846FF2106220AF030FB80B9761E07F170
:205ED0000E0705F10105F3D1607C002804BF0A20207452D094F83650284602F097F925749B
:205EF000E06900E0257C0A2D47DA002835D168000E214A4600EB85002030C0B202F036FDC4
:205F1000207C08F03DF86846FF2110220AF0D5FF207C10216A467030C0B202F027FD217C98
:205F30000E220801A0EB410000194946E6300AF0CFFBD8F814206AB15046007840B9107C18
:205F500002F11101002300F001000BF03FFA01E00120A074C4F81C804CE08268002A3ED127
:205F70000269002A2FD142690ABBC2683AB9A07B08B109F02FFB0AF07EF901203BE06800E3
:205F9000102100EB85002430C0B202F0EFFCE769217CFA68480000EB8100103225300421EE
:205FB000C0B202F0E3FCE1690020C86022E06800102100EB85002330C0B202F0D7FCE1691D
:205FD0000020486116E068001C2100EB85002230C0B202F0CBFCE169002008610AE068003B
:205FF0001C2100EB85002130C0B202F0BFFCE1690020886000200090BDE8FF875A4F00207E
:20601000E411002030B5401E3CA5ADF12C0D3AD0401E32D0801E2CD0401E26D0401E0BD0CF
:20603000401E05D0401E67D140F2D53137A327E040F2C73137A323E040F2153006A902F04F
:2060500053F806A807F0B2FE0090002001904FF4707102900122039035A30490284604F015
:20607000B1FA56480BF0AEF946E04FF474713AA306E040F2CB313EA302E040F2B63141A326
:20609000002004462EE04FF4417008A902F02CF89DF821308DF819309DF822208DF81A2073
:2060B00000248DF81C4021468DF81B109DF820008DF818009DF825308DF81F309DF82420CB
:2060D0008DF81E209DF823303D498DF81D3006AB586848601A680A6008A807F067FE40F26A
:2060F000B1312BA30090204601900290039001220490284604F066FA0BB030BD70726F6A58
:206110006563745F7A65726F2E6300C04572726F7200C046436F6E6E656374656420616E31
:2061300064206164766572746973696E6700C046436F6E6E65637465642E20506565722098
:20615000616464726573733A201B5B33326D25731B5B306D00C046C0436F6E6E6563746903
:206170006F6E2074696D6564206F757400C046C0446973636F6E6E6563746564202F204936
:20619000646C65004164766572746973696E670047415020697320737461727465642E2001
:2061B0004F757220616464726573733A201B5B33326D25731B5B306D00C046C01009002047
:2061D0001F1000202DE9F04F6C4CA068ADF13C0D002800F0858004F1B80B4FF00D0A4FF0FA
:2061F0000A094FF0010878E00BF0E8F82178CA0002EB41125A44B2E8E01004ABA3E8E0100C
:20621000E0CAE0C364CA4F1C07F01F0183E8640004F10C05627821708A4208BF84F80280A0
:206230000BF024F9BDF83630A6212FA228460AF081F928460AF08EFB049F4619B8B209F04B
:206250007FFF4AA20CCA02F013FB4AA20CCA02F00FFB07F073FF009025A2A91B3B0C3046EF
:20627000A6310AF067F928460AF074FBBDF834704019BF1E04D07F1E14BF21A229A200E0C5
:2062900031A206990091059B2F1A07F1A6010AF051F928460AF05EFB4219A0682946521B1F
:2062B0000AF08AFD099800900A9E01960B9F02970C9B0393089B079AA62128460AF03AF9B7
:2062D00028460AF047FB421902F801AB02F8019BA0682946521B0AF06FFDA078002883D090
:2062F0000FB0BDE8F08FC04623253036752000C05B2025642E25303375205D2000C046C010
:206310001B5B33323B316D494E464F3A201B5B33303B316D2825733A256429201B5B306DA2
:2063300000C046C01B5B33313B316D4552524F523A201B5B33303B316D2825733A25642992
:20635000201B5B306D00C0461B5B33333B316D5741524E494E473A201B5B33303B316D28F5
:2063700025733A256429201B5B306D00000000000000F03E0000000000408F4008020020EF
:206390002DE9F0430546880FADF1140DC0F0BF80604C201D006840688768C668406800B1A5
:2063B0008047002F08BF002E08D00AF083FA07B1B84706B1B047584809F0D8FB57480AF029
:2063D00065FB574A40F60A0CA2F800C000205080117B60F3030111735060517B4FF00109EA
:2063F00069F303015173AB686E7C58801988A1F60201C9B141F21E07C91B15D041F6E6772A
:20641000C91B012920D8597E012E60F38201597606D0198B21F47C7141F43471198313E0D6
:20643000198B60F30911F9E7597C012E60F38201597405D0198A21F47C7141F4347102E07E
:20645000198A60F309111982D5F8088068746146464600E03E46776817B13B889942F9D1AA
:206470007260737B60F303037373E76E3FB1FB681B88CF1F9F421AD0891F994217D02F8CE4
:20649000B7B1686205F12001488095F82C3060F3030385F82C3095F82D3069F3030385F8F7
:2064B0002D305160517B60F30301517300E0A0601C4801688768C568009110226946406BF1
:2064D000019720F0784040F0805003901648029504F03CFC0AF0EEF914486061607F68B99A
:2064F0001348006801684846884701280CD0707B69F3030070730F4F676105E008F024F9B1
:206510000028FBD00AF0C1FC40460AF0BFFA05B0BDE8F083C01D00200100070601010E049C
:20653000F42600204C13005018000021DD350000E001001079D7000061480178002900D1BA
:2065500070472DE9F843491E032984B004D9891F012940F2B180A9E05A4CDFF86C912068BF
:20657000DFF8688103685A4E03F10805062205F1080102A80AF0ACF80622A91C68460AF033
:20659000A7F82878C1091D2700F00F02032AC0F3801537D16079C0F3800081421ED12169D8
:2065B000062202A809F09CFD00287AD0694628460AF090FF002874D0314668460AF086FF3F
:2065D000FF286ED04743D8F80000807AF519002818BF02280AD0012818BF032861D1F25D35
:2065F000691C48460AF0E6FE10285AD06B46EA1D294648460AF0DAFE06226946E81D0AF0DB
:2066100067F84EE000F00F00052855D16079C0F38000814245D12169062202A809F060FDF4
:2066300000283ED0694628460AF054FF002838D0314668460AF04AFFFF2832D04743D8F88F
:206650000000807AF519002818BF01280AD0022818BF032825D1F25D691C48460AF0AAFEFA
:2066700010281ED040F2024008F024FA6B46EA1D294648460AF09AFE06226946E81D0AF03D
:2066900027F81448144A41F20441418041834186124801801249134811600121007803F0BE
:2066B000B7FA21680A680020107105E0002009F0C5FE86200AF0E6FE05B0BDE8F08300BFAC
:2066D0006F4F0020F44B0020CC470020104F0020AC450020204A0020204F0020504F0020D2
:2066F000595501106E4F00202DE9F04F0746ADF1140D0393002F02920E9801910F9C0490BD
:2067100000F0B680081C00F0B380101C00F0B080181C00F0AD800498002800F0A980002C56
:2067300000F0AB80206A002800F0A280564D666A281D0068002E00F09B80A16A0AF032FEDC
:2067500040B2002808BF6FF0020700F08D8084F82C002078618800EB80000918143188B2AF
:20677000216A88474749086030B9284640680AF015FE4FF0FF3777E08B46628823786088A1
:20679000DBF8001025789E1800EB010A701800F1040805EB450002EB4306851876186D181D
